{
  "_format": "hh-sol-artifact-1",
  "contractName": "VolcanoCoinV2",
  "sourceName": "contracts/Week 2/4.Thursday/VolcanoCoinV2.sol",
  "abi": [
    {
      "inputs": [],
      "stateMutability": "nonpayable",
      "type": "constructor"
    },
    {
      "anonymous": false,
      "inputs": [
        {
          "indexed": true,
          "internalType": "address",
          "name": "previousOwner",
          "type": "address"
        },
        {
          "indexed": true,
          "internalType": "address",
          "name": "newOwner",
          "type": "address"
        }
      ],
      "name": "OwnershipTransferred",
      "type": "event"
    },
    {
      "anonymous": false,
      "inputs": [
        {
          "indexed": false,
          "internalType": "uint256",
          "name": "totalSupplyWasChanged",
          "type": "uint256"
        }
      ],
      "name": "totalSupplyChanged",
      "type": "event"
    },
    {
      "anonymous": false,
      "inputs": [
        {
          "indexed": false,
          "internalType": "uint256",
          "name": "amountTransferred",
          "type": "uint256"
        },
        {
          "indexed": false,
          "internalType": "address",
          "name": "recipient",
          "type": "address"
        }
      ],
      "name": "transferOccurred",
      "type": "event"
    },
    {
      "inputs": [
        {
          "internalType": "address",
          "name": "",
          "type": "address"
        }
      ],
      "name": "balances",
      "outputs": [
        {
          "internalType": "uint256",
          "name": "",
          "type": "uint256"
        }
      ],
      "stateMutability": "view",
      "type": "function"
    },
    {
      "inputs": [],
      "name": "changeTotalSupply",
      "outputs": [],
      "stateMutability": "nonpayable",
      "type": "function"
    },
    {
      "inputs": [],
      "name": "owner",
      "outputs": [
        {
          "internalType": "address",
          "name": "",
          "type": "address"
        }
      ],
      "stateMutability": "view",
      "type": "function"
    },
    {
      "inputs": [
        {
          "internalType": "address",
          "name": "sender",
          "type": "address"
        },
        {
          "internalType": "address",
          "name": "reciever",
          "type": "address"
        },
        {
          "internalType": "uint256",
          "name": "amount",
          "type": "uint256"
        }
      ],
      "name": "recordPayment",
      "outputs": [],
      "stateMutability": "nonpayable",
      "type": "function"
    },
    {
      "inputs": [],
      "name": "renounceOwnership",
      "outputs": [],
      "stateMutability": "nonpayable",
      "type": "function"
    },
    {
      "inputs": [],
      "name": "returnTotalSupply",
      "outputs": [
        {
          "internalType": "uint256",
          "name": "",
          "type": "uint256"
        }
      ],
      "stateMutability": "view",
      "type": "function"
    },
    {
      "inputs": [],
      "name": "totalSupply",
      "outputs": [
        {
          "internalType": "uint256",
          "name": "",
          "type": "uint256"
        }
      ],
      "stateMutability": "view",
      "type": "function"
    },
    {
      "inputs": [
        {
          "internalType": "uint256",
          "name": "amount",
          "type": "uint256"
        },
        {
          "internalType": "address",
          "name": "toRecipient",
          "type": "address"
        }
      ],
      "name": "transfer",
      "outputs": [],
      "stateMutability": "nonpayable",
      "type": "function"
    },
    {
      "inputs": [
        {
          "internalType": "address",
          "name": "newOwner",
          "type": "address"
        }
      ],
      "name": "transferOwnership",
      "outputs": [],
      "stateMutability": "nonpayable",
      "type": "function"
    },
    {
      "inputs": [
        {
          "internalType": "address",
          "name": "user",
          "type": "address"
        }
      ],
      "name": "viewPaymentRecords",
      "outputs": [
        {
          "internalType": "uint256",
          "name": "",
          "type": "uint256"
        },
        {
          "internalType": "address",
          "name": "",
          "type": "address"
        }
      ],
      "stateMutability": "view",
      "type": "function"
    }
  ],
  "bytecode": "0x608060405261271060015534801561001657600080fd5b5061003361002861007e60201b60201c565b61008660201b60201c565b600154600260003373ffffffffffffffffffffffffffffffffffffffff1673ffffffffffffffffffffffffffffffffffffffff1681526020019081526020016000208190555061014a565b600033905090565b60008060009054906101000a900473ffffffffffffffffffffffffffffffffffffffff169050816000806101000a81548173ffffffffffffffffffffffffffffffffffffffff021916908373ffffffffffffffffffffffffffffffffffffffff1602179055508173ffffffffffffffffffffffffffffffffffffffff168173ffffffffffffffffffffffffffffffffffffffff167f8be0079c531659141344cd1fd0a4f28419497f9722a3daafe3b4186f6b6457e060405160405180910390a35050565b610af8806101596000396000f3fe608060405234801561001057600080fd5b506004361061009e5760003560e01c8063715018a611610066578063715018a6146101485780638da5cb5b14610152578063b7760c8f14610170578063c0ab76031461018c578063f2fde38b146101aa5761009e565b8063127895a9146100a357806318160ddd146100d457806327e235e3146100f25780633ab83cdf146101225780634e6ebeb81461012c575b600080fd5b6100bd60048036038101906100b891906107a9565b6101c6565b6040516100cb9291906107fe565b60405180910390f35b6100dc610278565b6040516100e99190610827565b60405180910390f35b61010c600480360381019061010791906107a9565b61027e565b6040516101199190610827565b60405180910390f35b61012a610296565b005b6101466004803603810190610141919061086e565b6102f4565b005b61015061041a565b005b61015a61042e565b60405161016791906108c1565b60405180910390f35b61018a600480360381019061018591906108dc565b610457565b005b61019461056f565b6040516101a19190610827565b60405180910390f35b6101c460048036038101906101bf91906107a9565b610579565b005b600080600360008473ffffffffffffffffffffffffffffffffffffffff1673ffffffffffffffffffffffffffffffffffffffff16815260200190815260200160002060000154600360008573ffffffffffffffffffffffffffffffffffffffff1673ffffffffffffffffffffffffffffffffffffffff16815260200190815260200160002060020160009054906101000a900473ffffffffffffffffffffffffffffffffffffffff1691509150915091565b60015481565b60026020528060005260406000206000915090505481565b61029e6105fc565b6103e8600160008282546102b2919061094b565b925050819055507fd8e439314980b46e75f83cab71ec60520c7a8f2f258aeb1b98c65cca3b430d0a6001546040516102ea9190610827565b60405180910390a1565b60405180606001604052808281526020018473ffffffffffffffffffffffffffffffffffffffff1681526020018373ffffffffffffffffffffffffffffffffffffffff16815250600360008573ffffffffffffffffffffffffffffffffffffffff1673ffffffffffffffffffffffffffffffffffffffff1681526020019081526020016000206000820151816000015560208201518160010160006101000a81548173ffffffffffffffffffffffffffffffffffffffff021916908373ffffffffffffffffffffffffffffffffffffffff16021790555060408201518160020160006101000a81548173ffffffffffffffffffffffffffffffffffffffff021916908373ffffffffffffffffffffffffffffffffffffffff160217905550905050505050565b6104226105fc565b61042c600061067a565b565b60008060009054906101000a900473ffffffffffffffffffffffffffffffffffffffff16905090565b813373ffffffffffffffffffffffffffffffffffffffff1631101561047b57600080fd5b81600260003373ffffffffffffffffffffffffffffffffffffffff1673ffffffffffffffffffffffffffffffffffffffff16815260200190815260200160002060008282546104ca919061097f565b9250508190555081600260008373ffffffffffffffffffffffffffffffffffffffff1673ffffffffffffffffffffffffffffffffffffffff1681526020019081526020016000206000828254610520919061094b565b925050819055506105323382846102f4565b7f60a7357f2d5a3995ce8878f77ba2b0d4a229f25792cd62e233ead352a9080c5382826040516105639291906107fe565b60405180910390a15050565b6000600154905090565b6105816105fc565b600073ffffffffffffffffffffffffffffffffffffffff168173ffffffffffffffffffffffffffffffffffffffff16036105f0576040517f08c379a00000000000000000000000000000000000000000000000000000000081526004016105e790610a36565b60405180910390fd5b6105f98161067a565b50565b61060461073e565b73ffffffffffffffffffffffffffffffffffffffff1661062261042e565b73ffffffffffffffffffffffffffffffffffffffff1614610678576040517f08c379a000000000000000000000000000000000000000000000000000000000815260040161066f90610aa2565b60405180910390fd5b565b60008060009054906101000a900473ffffffffffffffffffffffffffffffffffffffff169050816000806101000a81548173ffffffffffffffffffffffffffffffffffffffff021916908373ffffffffffffffffffffffffffffffffffffffff1602179055508173ffffffffffffffffffffffffffffffffffffffff168173ffffffffffffffffffffffffffffffffffffffff167f8be0079c531659141344cd1fd0a4f28419497f9722a3daafe3b4186f6b6457e060405160405180910390a35050565b600033905090565b600080fd5b600073ffffffffffffffffffffffffffffffffffffffff82169050919050565b60006107768261074b565b9050919050565b6107868161076b565b811461079157600080fd5b50565b6000813590506107a38161077d565b92915050565b6000602082840312156107bf576107be610746565b5b60006107cd84828501610794565b91505092915050565b6000819050919050565b6107e9816107d6565b82525050565b6107f88161076b565b82525050565b600060408201905061081360008301856107e0565b61082060208301846107ef565b9392505050565b600060208201905061083c60008301846107e0565b92915050565b61084b816107d6565b811461085657600080fd5b50565b60008135905061086881610842565b92915050565b60008060006060848603121561088757610886610746565b5b600061089586828701610794565b93505060206108a686828701610794565b92505060406108b786828701610859565b9150509250925092565b60006020820190506108d660008301846107ef565b92915050565b600080604083850312156108f3576108f2610746565b5b600061090185828601610859565b925050602061091285828601610794565b9150509250929050565b7f4e487b7100000000000000000000000000000000000000000000000000000000600052601160045260246000fd5b6000610956826107d6565b9150610961836107d6565b92508282019050808211156109795761097861091c565b5b92915050565b600061098a826107d6565b9150610995836107d6565b92508282039050818111156109ad576109ac61091c565b5b92915050565b600082825260208201905092915050565b7f4f776e61626c653a206e6577206f776e657220697320746865207a65726f206160008201527f6464726573730000000000000000000000000000000000000000000000000000602082015250565b6000610a206026836109b3565b9150610a2b826109c4565b604082019050919050565b60006020820190508181036000830152610a4f81610a13565b9050919050565b7f4f776e61626c653a2063616c6c6572206973206e6f7420746865206f776e6572600082015250565b6000610a8c6020836109b3565b9150610a9782610a56565b602082019050919050565b60006020820190508181036000830152610abb81610a7f565b905091905056fea2646970667358221220c6051d52433742d869aba6f0aecf99d527f85fb0aaccc32246611791d3a533b064736f6c63430008110033",
  "linkReferences": {},
  "deployedLinkReferences": {}
}